{
  "_format": "hh-sol-artifact-1",
  "contractName": "WavePortal",
  "sourceName": "contracts/WavePortal.sol",
  "abi": [
    {
      "inputs": [],
      "stateMutability": "payable",
      "type": "constructor"
    },
    {
      "anonymous": false,
      "inputs": [
        {
          "indexed": true,
          "internalType": "address",
          "name": "from",
          "type": "address"
        },
        {
          "indexed": false,
          "internalType": "uint256",
          "name": "timestamp",
          "type": "uint256"
        },
        {
          "indexed": false,
          "internalType": "string",
          "name": "message",
          "type": "string"
        }
      ],
      "name": "NewWave",
      "type": "event"
    },
    {
      "inputs": [
        {
          "internalType": "string",
          "name": "_message",
          "type": "string"
        }
      ],
      "name": "createWave",
      "outputs": [],
      "stateMutability": "nonpayable",
      "type": "function"
    },
    {
      "inputs": [],
      "name": "getTotalWaves",
      "outputs": [
        {
          "internalType": "uint256",
          "name": "",
          "type": "uint256"
        }
      ],
      "stateMutability": "view",
      "type": "function"
    },
    {
      "inputs": [
        {
          "internalType": "uint256",
          "name": "_index",
          "type": "uint256"
        }
      ],
      "name": "getWave",
      "outputs": [
        {
          "internalType": "address",
          "name": "",
          "type": "address"
        },
        {
          "internalType": "uint256",
          "name": "",
          "type": "uint256"
        },
        {
          "internalType": "string",
          "name": "",
          "type": "string"
        }
      ],
      "stateMutability": "view",
      "type": "function"
    },
    {
      "inputs": [
        {
          "internalType": "address",
          "name": "",
          "type": "address"
        }
      ],
      "name": "lastWavedAt",
      "outputs": [
        {
          "internalType": "uint256",
          "name": "",
          "type": "uint256"
        }
      ],
      "stateMutability": "view",
      "type": "function"
    }
  ],
  "bytecode": "0x608060405260008055620000536040518060400160405280600881526020017f57617373757570210000000000000000000000000000000000000000000000008152506200007b60201b6200070c1760201c565b60644442620000639190620001c8565b6200006f919062000265565b6001819055506200030c565b6200011b8160405160240162000092919062000188565b6040516020818303038152906040527f41304fac000000000000000000000000000000000000000000000000000000007bffffffffffffffffffffffffffffffffffffffffffffffffffffffff19166020820180517bffffffffffffffffffffffffffffffffffffffffffffffffffffffff83818316178352505050506200011e60201b60201c565b50565b60008151905060006a636f6e736f6c652e6c6f679050602083016000808483855afa5050505050565b60006200015482620001ac565b620001608185620001b7565b9350620001728185602086016200022f565b6200017d81620002fb565b840191505092915050565b60006020820190508181036000830152620001a4818462000147565b905092915050565b600081519050919050565b600082825260208201905092915050565b6000620001d58262000225565b9150620001e28362000225565b9250827fffffffffffffffffffffffffffffffffffffffffffffffffffffffffffffffff038211156200021a57620002196200029d565b5b828201905092915050565b6000819050919050565b60005b838110156200024f57808201518184015260208101905062000232565b838111156200025f576000848401525b50505050565b6000620002728262000225565b91506200027f8362000225565b925082620002925762000291620002cc565b5b828206905092915050565b7f4e487b7100000000000000000000000000000000000000000000000000000000600052601160045260246000fd5b7f4e487b7100000000000000000000000000000000000000000000000000000000600052601260045260246000fd5b6000601f19601f8301169050919050565b6111e3806200031c6000396000f3fe608060405234801561001057600080fd5b506004361061004c5760003560e01c80639a2cdc0814610051578063a42a46631461006f578063df215f301461009f578063e2f71d3e146100d1575b600080fd5b6100596100ed565b6040516100669190610d98565b60405180910390f35b61008960048036038101906100849190610add565b610138565b6040516100969190610d98565b60405180910390f35b6100b960048036038101906100b49190610b47565b610150565b6040516100c893929190610c45565b60405180910390f35b6100eb60048036038101906100e69190610b06565b610329565b005b60006101306040518060400160405280600f81526020017f546f74616c2077617665733a20257300000000000000000000000000000000008152506000546107a5565b600054905090565b60036020528060005260406000206000915090505481565b600080606060006002600086815260200190815260200160002090506102616040518060400160405280600e81526020017f576176652025733a2025732025730000000000000000000000000000000000008152508260000160009054906101000a900473ffffffffffffffffffffffffffffffffffffffff1683600201548460010180546101de90610f34565b80601f016020809104026020016040519081016040528092919081815260200182805461020a90610f34565b80156102575780601f1061022c57610100808354040283529160200191610257565b820191906000526020600020905b81548152906001019060200180831161023a57829003601f168201915b5050505050610841565b8060000160009054906101000a900473ffffffffffffffffffffffffffffffffffffffff1681600201548260010180805461029b90610f34565b80601f01602080910402602001604051908101604052809291908181526020018280546102c790610f34565b80156103145780601f106102e957610100808354040283529160200191610314565b820191906000526020600020905b8154815290600101906020018083116102f757829003601f168201915b50505050509050935093509350509193909250565b42610384600360003373ffffffffffffffffffffffffffffffffffffffff1673ffffffffffffffffffffffffffffffffffffffff168152602001908152602001600020546103779190610e60565b106103b7576040517f08c379a00000000000000000000000000000000000000000000000000000000081526004016103ae90610d58565b60405180910390fd5b42600360003373ffffffffffffffffffffffffffffffffffffffff1673ffffffffffffffffffffffffffffffffffffffff1681526020019081526020016000208190555060405180606001604052803373ffffffffffffffffffffffffffffffffffffffff16815260200182815260200142815250600260008054815260200190815260200160002060008201518160000160006101000a81548173ffffffffffffffffffffffffffffffffffffffff021916908373ffffffffffffffffffffffffffffffffffffffff16021790555060208201518160010190805190602001906104a39291906109a8565b50604082015181600201559050506000808154809291906104c390610f97565b91905055506105076040518060400160405280600c81526020017f2573206861732077617665640000000000000000000000000000000000000000815250336108e3565b606460015442446105189190610e60565b6105229190610e60565b61052c9190610fe0565b6001819055506105736040518060400160405280601681526020017f52616e646f6d20232067656e6572617465643a202564000000000000000000008152506001546107a5565b603260015410156106b9576105bd6040518060400160405280601581526020017f25732068617320776f6e20746865207072697a65210000000000000000000000815250336108e3565b600064e8d4a5100090504781111561060a576040517f08c379a000000000000000000000000000000000000000000000000000000000815260040161060190610d78565b60405180910390fd5b60003373ffffffffffffffffffffffffffffffffffffffff168260405161063090610c30565b60006040518083038185875af1925050503d806000811461066d576040519150601f19603f3d011682016040523d82523d6000602084013e610672565b606091505b50509050806106b6576040517f08c379a00000000000000000000000000000000000000000000000000000000081526004016106ad90610d78565b60405180910390fd5b50505b3373ffffffffffffffffffffffffffffffffffffffff167f5f7e16dc676677766a70e9c5628aa6c54ddb8b6e5188e2ae1e1f17f1ffbea7164283604051610701929190610db3565b60405180910390a250565b6107a2816040516024016107209190610c83565b6040516020818303038152906040527f41304fac000000000000000000000000000000000000000000000000000000007bffffffffffffffffffffffffffffffffffffffffffffffffffffffff19166020820180517bffffffffffffffffffffffffffffffffffffffffffffffffffffffff838183161783525050505061097f565b50565b61083d82826040516024016107bb929190610d28565b6040516020818303038152906040527f9710a9d0000000000000000000000000000000000000000000000000000000007bffffffffffffffffffffffffffffffffffffffffffffffffffffffff19166020820180517bffffffffffffffffffffffffffffffffffffffffffffffffffffffff838183161783525050505061097f565b5050565b6108dd8484848460405160240161085b9493929190610cd5565b6040516020818303038152906040527f4c55f234000000000000000000000000000000000000000000000000000000007bffffffffffffffffffffffffffffffffffffffffffffffffffffffff19166020820180517bffffffffffffffffffffffffffffffffffffffffffffffffffffffff838183161783525050505061097f565b50505050565b61097b82826040516024016108f9929190610ca5565b6040516020818303038152906040527f319af333000000000000000000000000000000000000000000000000000000007bffffffffffffffffffffffffffffffffffffffffffffffffffffffff19166020820180517bffffffffffffffffffffffffffffffffffffffffffffffffffffffff838183161783525050505061097f565b5050565b60008151905060006a636f6e736f6c652e6c6f679050602083016000808483855afa5050505050565b8280546109b490610f34565b90600052602060002090601f0160209004810192826109d65760008555610a1d565b82601f106109ef57805160ff1916838001178555610a1d565b82800160010185558215610a1d579182015b82811115610a1c578251825591602001919060010190610a01565b5b509050610a2a9190610a2e565b5090565b5b80821115610a47576000816000905550600101610a2f565b5090565b6000610a5e610a5984610e08565b610de3565b905082815260208101848484011115610a7657600080fd5b610a81848285610ef2565b509392505050565b600081359050610a988161117f565b92915050565b600082601f830112610aaf57600080fd5b8135610abf848260208601610a4b565b91505092915050565b600081359050610ad781611196565b92915050565b600060208284031215610aef57600080fd5b6000610afd84828501610a89565b91505092915050565b600060208284031215610b1857600080fd5b600082013567ffffffffffffffff811115610b3257600080fd5b610b3e84828501610a9e565b91505092915050565b600060208284031215610b5957600080fd5b6000610b6784828501610ac8565b91505092915050565b610b7981610eb6565b82525050565b6000610b8a82610e39565b610b948185610e4f565b9350610ba4818560208601610f01565b610bad816110cd565b840191505092915050565b6000610bc5602783610e4f565b9150610bd0826110de565b604082019050919050565b6000610be8603183610e4f565b9150610bf38261112d565b604082019050919050565b6000610c0b600083610e44565b9150610c168261117c565b600082019050919050565b610c2a81610ee8565b82525050565b6000610c3b82610bfe565b9150819050919050565b6000606082019050610c5a6000830186610b70565b610c676020830185610c21565b8181036040830152610c798184610b7f565b9050949350505050565b60006020820190508181036000830152610c9d8184610b7f565b905092915050565b60006040820190508181036000830152610cbf8185610b7f565b9050610cce6020830184610b70565b9392505050565b60006080820190508181036000830152610cef8187610b7f565b9050610cfe6020830186610b70565b610d0b6040830185610c21565b8181036060830152610d1d8184610b7f565b905095945050505050565b60006040820190508181036000830152610d428185610b7f565b9050610d516020830184610c21565b9392505050565b60006020820190508181036000830152610d7181610bb8565b9050919050565b60006020820190508181036000830152610d9181610bdb565b9050919050565b6000602082019050610dad6000830184610c21565b92915050565b6000604082019050610dc86000830185610c21565b8181036020830152610dda8184610b7f565b90509392505050565b6000610ded610dfe565b9050610df98282610f66565b919050565b6000604051905090565b600067ffffffffffffffff821115610e2357610e2261109e565b5b610e2c826110cd565b9050602081019050919050565b600081519050919050565b600081905092915050565b600082825260208201905092915050565b6000610e6b82610ee8565b9150610e7683610ee8565b9250827fffffffffffffffffffffffffffffffffffffffffffffffffffffffffffffffff03821115610eab57610eaa611011565b5b828201905092915050565b6000610ec182610ec8565b9050919050565b600073ffffffffffffffffffffffffffffffffffffffff82169050919050565b6000819050919050565b82818337600083830152505050565b60005b83811015610f1f578082015181840152602081019050610f04565b83811115610f2e576000848401525b50505050565b60006002820490506001821680610f4c57607f821691505b60208210811415610f6057610f5f61106f565b5b50919050565b610f6f826110cd565b810181811067ffffffffffffffff82111715610f8e57610f8d61109e565b5b80604052505050565b6000610fa282610ee8565b91507fffffffffffffffffffffffffffffffffffffffffffffffffffffffffffffffff821415610fd557610fd4611011565b5b600182019050919050565b6000610feb82610ee8565b9150610ff683610ee8565b92508261100657611005611040565b5b828206905092915050565b7f4e487b7100000000000000000000000000000000000000000000000000000000600052601160045260246000fd5b7f4e487b7100000000000000000000000000000000000000000000000000000000600052601260045260246000fd5b7f4e487b7100000000000000000000000000000000000000000000000000000000600052602260045260246000fd5b7f4e487b7100000000000000000000000000000000000000000000000000000000600052604160045260246000fd5b6000601f19601f8301169050919050565b7f596f752063616e206f6e6c792077617665206f6e63652065766572792031352060008201527f6d696e7574657300000000000000000000000000000000000000000000000000602082015250565b7f596f7520646f6e2774206861766520656e6f75676820657468657220746f207060008201527f617920666f7220746865207072697a6521000000000000000000000000000000602082015250565b50565b61118881610eb6565b811461119357600080fd5b50565b61119f81610ee8565b81146111aa57600080fd5b5056fea2646970667358221220dcf07bf557fa252290c04738442e223409d61572b72b52b789b14edd7919bbda64736f6c63430008040033",
  "linkReferences": {},
  "deployedLinkReferences": {}
}