{
  "_format": "hh-sol-artifact-1",
  "contractName": "WavePortal",
  "sourceName": "contracts/WavePortal.sol",
  "abi": [
    {
      "inputs": [],
      "stateMutability": "nonpayable",
      "type": "constructor"
    },
    {
      "anonymous": false,
      "inputs": [
        {
          "indexed": true,
          "internalType": "address",
          "name": "from",
          "type": "address"
        },
        {
          "indexed": false,
          "internalType": "uint256",
          "name": "timestamp",
          "type": "uint256"
        },
        {
          "indexed": false,
          "internalType": "string",
          "name": "message",
          "type": "string"
        }
      ],
      "name": "NewWave",
      "type": "event"
    },
    {
      "inputs": [
        {
          "internalType": "string",
          "name": "_message",
          "type": "string"
        }
      ],
      "name": "createWave",
      "outputs": [],
      "stateMutability": "nonpayable",
      "type": "function"
    },
    {
      "inputs": [],
      "name": "getTotalWaves",
      "outputs": [
        {
          "internalType": "uint256",
          "name": "",
          "type": "uint256"
        }
      ],
      "stateMutability": "view",
      "type": "function"
    },
    {
      "inputs": [
        {
          "internalType": "uint256",
          "name": "_index",
          "type": "uint256"
        }
      ],
      "name": "getWave",
      "outputs": [
        {
          "internalType": "address",
          "name": "",
          "type": "address"
        },
        {
          "internalType": "uint256",
          "name": "",
          "type": "uint256"
        },
        {
          "internalType": "string",
          "name": "",
          "type": "string"
        }
      ],
      "stateMutability": "view",
      "type": "function"
    }
  ],
  "bytecode": "0x6080604052600080553480156200001557600080fd5b50620000616040518060400160405280600881526020017f57617373757570210000000000000000000000000000000000000000000000008152506200006760201b620004351760201c565b620001fb565b62000107816040516024016200007e919062000174565b6040516020818303038152906040527f41304fac000000000000000000000000000000000000000000000000000000007bffffffffffffffffffffffffffffffffffffffffffffffffffffffff19166020820180517bffffffffffffffffffffffffffffffffffffffffffffffffffffffff83818316178352505050506200010a60201b60201c565b50565b60008151905060006a636f6e736f6c652e6c6f679050602083016000808483855afa5050505050565b6000620001408262000198565b6200014c8185620001a3565b93506200015e818560208601620001b4565b6200016981620001ea565b840191505092915050565b6000602082019050818103600083015262000190818462000133565b905092915050565b600081519050919050565b600082825260208201905092915050565b60005b83811015620001d4578082015181840152602081019050620001b7565b83811115620001e4576000848401525b50505050565b6000601f19601f8301169050919050565b610c97806200020b6000396000f3fe608060405234801561001057600080fd5b50600436106100415760003560e01c80639a2cdc0814610046578063df215f3014610064578063e2f71d3e14610096575b600080fd5b61004e6100b2565b60405161005b91906109c5565b60405180910390f35b61007e60048036038101906100799190610832565b6100fd565b60405161008d939291906108b2565b60405180910390f35b6100b060048036038101906100ab91906107f1565b6102d6565b005b60006100f56040518060400160405280600f81526020017f546f74616c2077617665733a20257300000000000000000000000000000000008152506000546104ce565b600054905090565b6000806060600060016000868152602001908152602001600020905061020e6040518060400160405280600e81526020017f576176652025733a2025732025730000000000000000000000000000000000008152508260000160009054906101000a900473ffffffffffffffffffffffffffffffffffffffff16836002015484600101805461018b90610b00565b80601f01602080910402602001604051908101604052809291908181526020018280546101b790610b00565b80156102045780601f106101d957610100808354040283529160200191610204565b820191906000526020600020905b8154815290600101906020018083116101e757829003601f168201915b505050505061056a565b8060000160009054906101000a900473ffffffffffffffffffffffffffffffffffffffff1681600201548260010180805461024890610b00565b80601f016020809104026020016040519081016040528092919081815260200182805461027490610b00565b80156102c15780601f10610296576101008083540402835291602001916102c1565b820191906000526020600020905b8154815290600101906020018083116102a457829003601f168201915b50505050509050935093509350509193909250565b60405180606001604052803373ffffffffffffffffffffffffffffffffffffffff16815260200182815260200142815250600160008054815260200190815260200160002060008201518160000160006101000a81548173ffffffffffffffffffffffffffffffffffffffff021916908373ffffffffffffffffffffffffffffffffffffffff160217905550602082015181600101908051906020019061037e9291906106d1565b506040820151816002015590505060008081548092919061039e90610b63565b91905055506103e26040518060400160405280600c81526020017f25732068617320776176656400000000000000000000000000000000000000008152503361060c565b3373ffffffffffffffffffffffffffffffffffffffff167f5f7e16dc676677766a70e9c5628aa6c54ddb8b6e5188e2ae1e1f17f1ffbea716428360405161042a9291906109e0565b60405180910390a250565b6104cb8160405160240161044991906108f0565b6040516020818303038152906040527f41304fac000000000000000000000000000000000000000000000000000000007bffffffffffffffffffffffffffffffffffffffffffffffffffffffff19166020820180517bffffffffffffffffffffffffffffffffffffffffffffffffffffffff83818316178352505050506106a8565b50565b61056682826040516024016104e4929190610995565b6040516020818303038152906040527f9710a9d0000000000000000000000000000000000000000000000000000000007bffffffffffffffffffffffffffffffffffffffffffffffffffffffff19166020820180517bffffffffffffffffffffffffffffffffffffffffffffffffffffffff83818316178352505050506106a8565b5050565b610606848484846040516024016105849493929190610942565b6040516020818303038152906040527f4c55f234000000000000000000000000000000000000000000000000000000007bffffffffffffffffffffffffffffffffffffffffffffffffffffffff19166020820180517bffffffffffffffffffffffffffffffffffffffffffffffffffffffff83818316178352505050506106a8565b50505050565b6106a48282604051602401610622929190610912565b6040516020818303038152906040527f319af333000000000000000000000000000000000000000000000000000000007bffffffffffffffffffffffffffffffffffffffffffffffffffffffff19166020820180517bffffffffffffffffffffffffffffffffffffffffffffffffffffffff83818316178352505050506106a8565b5050565b60008151905060006a636f6e736f6c652e6c6f679050602083016000808483855afa5050505050565b8280546106dd90610b00565b90600052602060002090601f0160209004810192826106ff5760008555610746565b82601f1061071857805160ff1916838001178555610746565b82800160010185558215610746579182015b8281111561074557825182559160200191906001019061072a565b5b5090506107539190610757565b5090565b5b80821115610770576000816000905550600101610758565b5090565b600061078761078284610a35565b610a10565b90508281526020810184848401111561079f57600080fd5b6107aa848285610abe565b509392505050565b600082601f8301126107c357600080fd5b81356107d3848260208601610774565b91505092915050565b6000813590506107eb81610c4a565b92915050565b60006020828403121561080357600080fd5b600082013567ffffffffffffffff81111561081d57600080fd5b610829848285016107b2565b91505092915050565b60006020828403121561084457600080fd5b6000610852848285016107dc565b91505092915050565b61086481610a82565b82525050565b600061087582610a66565b61087f8185610a71565b935061088f818560208601610acd565b61089881610c39565b840191505092915050565b6108ac81610ab4565b82525050565b60006060820190506108c7600083018661085b565b6108d460208301856108a3565b81810360408301526108e6818461086a565b9050949350505050565b6000602082019050818103600083015261090a818461086a565b905092915050565b6000604082019050818103600083015261092c818561086a565b905061093b602083018461085b565b9392505050565b6000608082019050818103600083015261095c818761086a565b905061096b602083018661085b565b61097860408301856108a3565b818103606083015261098a818461086a565b905095945050505050565b600060408201905081810360008301526109af818561086a565b90506109be60208301846108a3565b9392505050565b60006020820190506109da60008301846108a3565b92915050565b60006040820190506109f560008301856108a3565b8181036020830152610a07818461086a565b90509392505050565b6000610a1a610a2b565b9050610a268282610b32565b919050565b6000604051905090565b600067ffffffffffffffff821115610a5057610a4f610c0a565b5b610a5982610c39565b9050602081019050919050565b600081519050919050565b600082825260208201905092915050565b6000610a8d82610a94565b9050919050565b600073ffffffffffffffffffffffffffffffffffffffff82169050919050565b6000819050919050565b82818337600083830152505050565b60005b83811015610aeb578082015181840152602081019050610ad0565b83811115610afa576000848401525b50505050565b60006002820490506001821680610b1857607f821691505b60208210811415610b2c57610b2b610bdb565b5b50919050565b610b3b82610c39565b810181811067ffffffffffffffff82111715610b5a57610b59610c0a565b5b80604052505050565b6000610b6e82610ab4565b91507fffffffffffffffffffffffffffffffffffffffffffffffffffffffffffffffff821415610ba157610ba0610bac565b5b600182019050919050565b7f4e487b7100000000000000000000000000000000000000000000000000000000600052601160045260246000fd5b7f4e487b7100000000000000000000000000000000000000000000000000000000600052602260045260246000fd5b7f4e487b7100000000000000000000000000000000000000000000000000000000600052604160045260246000fd5b6000601f19601f8301169050919050565b610c5381610ab4565b8114610c5e57600080fd5b5056fea264697066735822122085950d201b5728c492bf1d46315728a83a36d15013365b4362d9f07b17f3d56964736f6c63430008040033",
  "linkReferences": {},
  "deployedLinkReferences": {}
}